{
  "_format": "hh-sol-artifact-1",
  "contractName": "Example",
  "sourceName": "contracts/Example.sol",
  "abi": [
    {
      "inputs": [
        {
          "internalType": "string",
          "name": "_name",
          "type": "string"
        },
        {
          "internalType": "uint256",
          "name": "_age",
          "type": "uint256"
        }
      ],
      "name": "createUser",
      "outputs": [],
      "stateMutability": "nonpayable",
      "type": "function"
    },
    {
      "inputs": [],
      "name": "deleteUser",
      "outputs": [],
      "stateMutability": "nonpayable",
      "type": "function"
    },
    {
      "inputs": [],
      "name": "getUser",
      "outputs": [
        {
          "components": [
            {
              "internalType": "uint256",
              "name": "id",
              "type": "uint256"
            },
            {
              "internalType": "string",
              "name": "name",
              "type": "string"
            },
            {
              "internalType": "uint256",
              "name": "age",
              "type": "uint256"
            }
          ],
          "internalType": "struct Example.User",
          "name": "",
          "type": "tuple"
        }
      ],
      "stateMutability": "view",
      "type": "function"
    },
    {
      "inputs": [],
      "name": "getUsers",
      "outputs": [
        {
          "components": [
            {
              "internalType": "uint256",
              "name": "id",
              "type": "uint256"
            },
            {
              "internalType": "string",
              "name": "name",
              "type": "string"
            },
            {
              "internalType": "uint256",
              "name": "age",
              "type": "uint256"
            }
          ],
          "internalType": "struct Example.User[]",
          "name": "",
          "type": "tuple[]"
        }
      ],
      "stateMutability": "view",
      "type": "function"
    },
    {
      "inputs": [
        {
          "internalType": "string",
          "name": "_name",
          "type": "string"
        },
        {
          "internalType": "uint256",
          "name": "_age",
          "type": "uint256"
        }
      ],
      "name": "updateUser",
      "outputs": [],
      "stateMutability": "nonpayable",
      "type": "function"
    },
    {
      "inputs": [
        {
          "internalType": "uint256",
          "name": "",
          "type": "uint256"
        }
      ],
      "name": "userAddresses",
      "outputs": [
        {
          "internalType": "address",
          "name": "",
          "type": "address"
        }
      ],
      "stateMutability": "view",
      "type": "function"
    },
    {
      "inputs": [
        {
          "internalType": "address",
          "name": "",
          "type": "address"
        }
      ],
      "name": "users",
      "outputs": [
        {
          "internalType": "uint256",
          "name": "id",
          "type": "uint256"
        },
        {
          "internalType": "string",
          "name": "name",
          "type": "string"
        },
        {
          "internalType": "uint256",
          "name": "age",
          "type": "uint256"
        }
      ],
      "stateMutability": "view",
      "type": "function"
    }
  ],
  "bytecode": "0x608060405234801561001057600080fd5b50610ec3806100206000396000f3fe608060405234801561001057600080fd5b506004361061007c5760003560e01c80632bf9866f1161005b5780632bf9866f146100c5578063502c9bd5146100e1578063832880e714610111578063a87430ba1461012f5761007c565b8062ce8e3e14610081578063026ff05e1461009f578063121ef243146100a9575b600080fd5b610089610161565b6040516100969190610b7f565b60405180910390f35b6100a76103a8565b005b6100c360048036038101906100be919061091f565b61040b565b005b6100df60048036038101906100da919061091f565b61050a565b005b6100fb60048036038101906100f69190610973565b610573565b6040516101089190610b64565b60405180910390f35b6101196105b2565b6040516101269190610ba1565b60405180910390f35b610149600480360381019061014491906108f6565b6106ae565b60405161015893929190610bc3565b60405180910390f35b6060600060018054905067ffffffffffffffff8111156101aa577f4e487b7100000000000000000000000000000000000000000000000000000000600052604160045260246000fd5b6040519080825280602002602001820160405280156101e357816020015b6101d0610760565b8152602001906001900390816101c85790505b50905060005b6001805490508110156103a05760008060018381548110610233577f4e487b7100000000000000000000000000000000000000000000000000000000600052603260045260246000fd5b9060005260206000200160009054906101000a900473ffffffffffffffffffffffffffffffffffffffff1673ffffffffffffffffffffffffffffffffffffffff1673ffffffffffffffffffffffffffffffffffffffff168152602001908152602001600020604051806060016040529081600082015481526020016001820180546102bd90610d46565b80601f01602080910402602001604051908101604052809291908181526020018280546102e990610d46565b80156103365780601f1061030b57610100808354040283529160200191610336565b820191906000526020600020905b81548152906001019060200180831161031957829003601f168201915b50505050508152602001600282015481525050828281518110610382577f4e487b7100000000000000000000000000000000000000000000000000000000600052603260045260246000fd5b6020026020010181905250808061039890610d78565b9150506101e9565b508091505090565b6000803373ffffffffffffffffffffffffffffffffffffffff1673ffffffffffffffffffffffffffffffffffffffff1681526020019081526020016000206000808201600090556001820160006103ff9190610781565b60028201600090555050565b600060405180606001604052806001805490508152602001848152602001838152509050806000803373ffffffffffffffffffffffffffffffffffffffff1673ffffffffffffffffffffffffffffffffffffffff1681526020019081526020016000206000820151816000015560208201518160010190805190602001906104949291906107c1565b50604082015181600201559050506001339080600181540180825580915050600190039060005260206000200160009091909190916101000a81548173ffffffffffffffffffffffffffffffffffffffff021916908373ffffffffffffffffffffffffffffffffffffffff160217905550505050565b60008060003373ffffffffffffffffffffffffffffffffffffffff1673ffffffffffffffffffffffffffffffffffffffff1681526020019081526020016000209050828160010190805190602001906105649291906107c1565b50818160020181905550505050565b6001818154811061058357600080fd5b906000526020600020016000915054906101000a900473ffffffffffffffffffffffffffffffffffffffff1681565b6105ba610760565b6000803373ffffffffffffffffffffffffffffffffffffffff1673ffffffffffffffffffffffffffffffffffffffff1681526020019081526020016000206040518060600160405290816000820154815260200160018201805461061d90610d46565b80601f016020809104026020016040519081016040528092919081815260200182805461064990610d46565b80156106965780601f1061066b57610100808354040283529160200191610696565b820191906000526020600020905b81548152906001019060200180831161067957829003601f168201915b50505050508152602001600282015481525050905090565b60006020528060005260406000206000915090508060000154908060010180546106d790610d46565b80601f016020809104026020016040519081016040528092919081815260200182805461070390610d46565b80156107505780601f1061072557610100808354040283529160200191610750565b820191906000526020600020905b81548152906001019060200180831161073357829003601f168201915b5050505050908060020154905083565b60405180606001604052806000815260200160608152602001600081525090565b50805461078d90610d46565b6000825580601f1061079f57506107be565b601f0160209004906000526020600020908101906107bd9190610847565b5b50565b8280546107cd90610d46565b90600052602060002090601f0160209004810192826107ef5760008555610836565b82601f1061080857805160ff1916838001178555610836565b82800160010185558215610836579182015b8281111561083557825182559160200191906001019061081a565b5b5090506108439190610847565b5090565b5b80821115610860576000816000905550600101610848565b5090565b600061087761087284610c32565b610c01565b90508281526020810184848401111561088f57600080fd5b61089a848285610d04565b509392505050565b6000813590506108b181610e5f565b92915050565b600082601f8301126108c857600080fd5b81356108d8848260208601610864565b91505092915050565b6000813590506108f081610e76565b92915050565b60006020828403121561090857600080fd5b6000610916848285016108a2565b91505092915050565b6000806040838503121561093257600080fd5b600083013567ffffffffffffffff81111561094c57600080fd5b610958858286016108b7565b9250506020610969858286016108e1565b9150509250929050565b60006020828403121561098557600080fd5b6000610993848285016108e1565b91505092915050565b60006109a88383610aa6565b905092915050565b6109b981610cc8565b82525050565b60006109ca82610c72565b6109d48185610c95565b9350836020820285016109e685610c62565b8060005b85811015610a225784840389528151610a03858261099c565b9450610a0e83610c88565b925060208a019950506001810190506109ea565b50829750879550505050505092915050565b6000610a3f82610c7d565b610a498185610ca6565b9350610a59818560208601610d13565b610a6281610e4e565b840191505092915050565b6000610a7882610c7d565b610a828185610cb7565b9350610a92818560208601610d13565b610a9b81610e4e565b840191505092915050565b6000606083016000830151610abe6000860182610b46565b5060208301518482036020860152610ad68282610a34565b9150506040830151610aeb6040860182610b46565b508091505092915050565b6000606083016000830151610b0e6000860182610b46565b5060208301518482036020860152610b268282610a34565b9150506040830151610b3b6040860182610b46565b508091505092915050565b610b4f81610cfa565b82525050565b610b5e81610cfa565b82525050565b6000602082019050610b7960008301846109b0565b92915050565b60006020820190508181036000830152610b9981846109bf565b905092915050565b60006020820190508181036000830152610bbb8184610af6565b905092915050565b6000606082019050610bd86000830186610b55565b8181036020830152610bea8185610a6d565b9050610bf96040830184610b55565b949350505050565b6000604051905081810181811067ffffffffffffffff82111715610c2857610c27610e1f565b5b8060405250919050565b600067ffffffffffffffff821115610c4d57610c4c610e1f565b5b601f19601f8301169050602081019050919050565b6000819050602082019050919050565b600081519050919050565b600081519050919050565b6000602082019050919050565b600082825260208201905092915050565b600082825260208201905092915050565b600082825260208201905092915050565b6000610cd382610cda565b9050919050565b600073ffffffffffffffffffffffffffffffffffffffff82169050919050565b6000819050919050565b82818337600083830152505050565b60005b83811015610d31578082015181840152602081019050610d16565b83811115610d40576000848401525b50505050565b60006002820490506001821680610d5e57607f821691505b60208210811415610d7257610d71610df0565b5b50919050565b6000610d8382610cfa565b91507fffffffffffffffffffffffffffffffffffffffffffffffffffffffffffffffff821415610db657610db5610dc1565b5b600182019050919050565b7f4e487b7100000000000000000000000000000000000000000000000000000000600052601160045260246000fd5b7f4e487b7100000000000000000000000000000000000000000000000000000000600052602260045260246000fd5b7f4e487b7100000000000000000000000000000000000000000000000000000000600052604160045260246000fd5b6000601f19601f8301169050919050565b610e6881610cc8565b8114610e7357600080fd5b50565b610e7f81610cfa565b8114610e8a57600080fd5b5056fea26469706673582212207d669afae7eff27c716ad833acbdf3372dd294384176324272c7667af1dfe84664736f6c63430008000033",
  "linkReferences": {},
  "deployedLinkReferences": {}
}